{
  "contractName": "Company",
  "abi": [
    {
      "constant": false,
      "inputs": [
        {
          "name": "_newCOO",
          "type": "address"
        }
      ],
      "name": "addCOO",
      "outputs": [],
      "payable": false,
      "stateMutability": "nonpayable",
      "type": "function"
    },
    {
      "constant": false,
      "inputs": [
        {
          "name": "_newCTO",
          "type": "address"
        }
      ],
      "name": "addCTO",
      "outputs": [],
      "payable": false,
      "stateMutability": "nonpayable",
      "type": "function"
    },
    {
      "constant": true,
      "inputs": [],
      "name": "CFO",
      "outputs": [
        {
          "name": "",
          "type": "address"
        }
      ],
      "payable": false,
      "stateMutability": "view",
      "type": "function"
    },
    {
      "constant": false,
      "inputs": [],
      "name": "withdraw",
      "outputs": [],
      "payable": false,
      "stateMutability": "nonpayable",
      "type": "function"
    },
    {
      "constant": true,
      "inputs": [],
      "name": "CTO",
      "outputs": [
        {
          "name": "",
          "type": "address"
        }
      ],
      "payable": false,
      "stateMutability": "view",
      "type": "function"
    },
    {
      "constant": true,
      "inputs": [],
      "name": "CEO",
      "outputs": [
        {
          "name": "",
          "type": "address"
        }
      ],
      "payable": false,
      "stateMutability": "view",
      "type": "function"
    },
    {
      "constant": true,
      "inputs": [],
      "name": "COO",
      "outputs": [
        {
          "name": "",
          "type": "address"
        }
      ],
      "payable": false,
      "stateMutability": "view",
      "type": "function"
    },
    {
      "constant": false,
      "inputs": [
        {
          "name": "_newCFO",
          "type": "address"
        }
      ],
      "name": "addCFO",
      "outputs": [],
      "payable": false,
      "stateMutability": "nonpayable",
      "type": "function"
    },
    {
      "payable": true,
      "stateMutability": "payable",
      "type": "fallback"
    },
    {
      "constant": false,
      "inputs": [
        {
          "name": "_memberAddress",
          "type": "address"
        },
        {
          "name": "_memberName",
          "type": "string"
        }
      ],
      "name": "addMember",
      "outputs": [],
      "payable": false,
      "stateMutability": "nonpayable",
      "type": "function"
    },
    {
      "constant": false,
      "inputs": [
        {
          "name": "_companyAddress",
          "type": "address"
        },
        {
          "name": "_settlerName",
          "type": "string"
        },
        {
          "name": "_companyResidence",
          "type": "string"
        },
        {
          "name": "_industry",
          "type": "string"
        }
      ],
      "name": "addCompany",
      "outputs": [],
      "payable": false,
      "stateMutability": "nonpayable",
      "type": "function"
    }
  ],
  "bytecode": "0x6080604052336000806101000a81548173ffffffffffffffffffffffffffffffffffffffff021916908373ffffffffffffffffffffffffffffffffffffffff160217905550610f0e806100536000396000f3006080604052600436106100a4576000357c0100000000000000000000000000000000000000000000000000000000900463ffffffff1680630340752f146100a65780631a99143b146100e9578063219fb414146101fe57806330d500bf146102415780633ccfd60b146102985780633d01bdec146102af578063a108857114610306578063c127c2471461035d578063e1b27e6b146103e6578063fd4421a11461043d575b005b3480156100b257600080fd5b506100e7600480360381019080803573ffffffffffffffffffffffffffffffffffffffff169060200190929190505050610480565b005b3480156100f557600080fd5b506101fc600480360381019080803573ffffffffffffffffffffffffffffffffffffffff169060200190929190803590602001908201803590602001908080601f0160208091040260200160405190810160405280939291908181526020018383808284378201915050505050509192919290803590602001908201803590602001908080601f0160208091040260200160405190810160405280939291908181526020018383808284378201915050505050509192919290803590602001908201803590602001908080601f0160208091040260200160405190810160405280939291908181526020018383808284378201915050505050509192919290505050610500565b005b34801561020a57600080fd5b5061023f600480360381019080803573ffffffffffffffffffffffffffffffffffffffff169060200190929190505050610683565b005b34801561024d57600080fd5b50610256610703565b604051808273ffffffffffffffffffffffffffffffffffffffff1673ffffffffffffffffffffffffffffffffffffffff16815260200191505060405180910390f35b3480156102a457600080fd5b506102ad610729565b005b3480156102bb57600080fd5b506102c4610805565b604051808273ffffffffffffffffffffffffffffffffffffffff1673ffffffffffffffffffffffffffffffffffffffff16815260200191505060405180910390f35b34801561031257600080fd5b5061031b61082b565b604051808273ffffffffffffffffffffffffffffffffffffffff1673ffffffffffffffffffffffffffffffffffffffff16815260200191505060405180910390f35b34801561036957600080fd5b506103e4600480360381019080803573ffffffffffffffffffffffffffffffffffffffff169060200190929190803590602001908201803590602001908080601f0160208091040260200160405190810160405280939291908181526020018383808284378201915050505050509192919290505050610850565b005b3480156103f257600080fd5b506103fb61086a565b604051808273ffffffffffffffffffffffffffffffffffffffff1673ffffffffffffffffffffffffffffffffffffffff16815260200191505060405180910390f35b34801561044957600080fd5b5061047e600480360381019080803573ffffffffffffffffffffffffffffffffffffffff169060200190929190505050610890565b005b600073ffffffffffffffffffffffffffffffffffffffff168173ffffffffffffffffffffffffffffffffffffffff16141515156104bc57600080fd5b80600260006101000a81548173ffffffffffffffffffffffffffffffffffffffff021916908373ffffffffffffffffffffffffffffffffffffffff16021790555050565b6000809054906101000a900473ffffffffffffffffffffffffffffffffffffffff1673ffffffffffffffffffffffffffffffffffffffff163373ffffffffffffffffffffffffffffffffffffffff1614806105a85750600160009054906101000a900473ffffffffffffffffffffffffffffffffffffffff1673ffffffffffffffffffffffffffffffffffffffff163373ffffffffffffffffffffffffffffffffffffffff16145b806106005750600260009054906101000a900473ffffffffffffffffffffffffffffffffffffffff1673ffffffffffffffffffffffffffffffffffffffff163373ffffffffffffffffffffffffffffffffffffffff16145b806106585750600360009054906101000a900473ffffffffffffffffffffffffffffffffffffffff1673ffffffffffffffffffffffffffffffffffffffff163373ffffffffffffffffffffffffffffffffffffffff16145b151561066357600080fd5b61067d84848484600461091090949392919063ffffffff16565b50505050565b600073ffffffffffffffffffffffffffffffffffffffff168173ffffffffffffffffffffffffffffffffffffffff16141515156106bf57600080fd5b80600160006101000a81548173ffffffffffffffffffffffffffffffffffffffff021916908373ffffffffffffffffffffffffffffffffffffffff16021790555050565b600360009054906101000a900473ffffffffffffffffffffffffffffffffffffffff1681565b6000809054906101000a900473ffffffffffffffffffffffffffffffffffffffff1673ffffffffffffffffffffffffffffffffffffffff163373ffffffffffffffffffffffffffffffffffffffff1614151561078457600080fd5b6000809054906101000a900473ffffffffffffffffffffffffffffffffffffffff1673ffffffffffffffffffffffffffffffffffffffff166108fc3073ffffffffffffffffffffffffffffffffffffffff16319081150290604051600060405180830381858888f19350505050158015610802573d6000803e3d6000fd5b50565b600160009054906101000a900473ffffffffffffffffffffffffffffffffffffffff1681565b6000809054906101000a900473ffffffffffffffffffffffffffffffffffffffff1681565b61086682826004610bfc9092919063ffffffff16565b5050565b600260009054906101000a900473ffffffffffffffffffffffffffffffffffffffff1681565b600073ffffffffffffffffffffffffffffffffffffffff168173ffffffffffffffffffffffffffffffffffffffff16141515156108cc57600080fd5b80600360006101000a81548173ffffffffffffffffffffffffffffffffffffffff021916908373ffffffffffffffffffffffffffffffffffffffff16021790555050565b8460010160008573ffffffffffffffffffffffffffffffffffffffff1673ffffffffffffffffffffffffffffffffffffffff16815260200190815260200160002060000160009054906101000a900460ff1615151561096e57600080fd5b846004018490806001815401808255809150509060018203906000526020600020016000909192909190916101000a81548173ffffffffffffffffffffffffffffffffffffffff021916908373ffffffffffffffffffffffffffffffffffffffff1602179055505060c0604051908101604052808573ffffffffffffffffffffffffffffffffffffffff16815260200160018760040180549050038152602001848152602001838152602001828152602001600115158152508560020160008673ffffffffffffffffffffffffffffffffffffffff1673ffffffffffffffffffffffffffffffffffffffff16815260200190815260200160002060008201518160000160006101000a81548173ffffffffffffffffffffffffffffffffffffffff021916908373ffffffffffffffffffffffffffffffffffffffff160217905550602082015181600101556040820151816002019080519060200190610ad5929190610e3d565b506060820151816003019080519060200190610af2929190610e3d565b506080820151816004019080519060200190610b0f929190610e3d565b5060a08201518160050160006101000a81548160ff0219169083151502179055509050508373ffffffffffffffffffffffffffffffffffffffff167fe12738f0e92b7db0a924566381416c9edfd93bec9a1f89b7f07d1e572b3d94168487600401805490506040518080602001838152602001828103825284818151815260200191508051906020019080838360005b83811015610bba578082015181840152602081019050610b9f565b50505050905090810190601f168015610be75780820380516001836020036101000a031916815260200191505b50935050505060405180910390a25050505050565b8260010160008373ffffffffffffffffffffffffffffffffffffffff1673ffffffffffffffffffffffffffffffffffffffff16815260200190815260200160002060000160009054906101000a900460ff16151515610c5a57600080fd5b826003018290806001815401808255809150509060018203906000526020600020016000909192909190916101000a81548173ffffffffffffffffffffffffffffffffffffffff021916908373ffffffffffffffffffffffffffffffffffffffff1602179055505060606040519081016040528060011515815260200160018560030180549050038152602001828152508360010160008473ffffffffffffffffffffffffffffffffffffffff1673ffffffffffffffffffffffffffffffffffffffff16815260200190815260200160002060008201518160000160006101000a81548160ff021916908315150217905550602082015181600101556040820151816002019080519060200190610d72929190610e3d565b509050508173ffffffffffffffffffffffffffffffffffffffff167fac4f9610b174640b0a902ce555faa384cc9c9d291750f76e476f26f97bd079b48285600301805490506040518080602001838152602001828103825284818151815260200191508051906020019080838360005b83811015610dfd578082015181840152602081019050610de2565b50505050905090810190601f168015610e2a5780820380516001836020036101000a031916815260200191505b50935050505060405180910390a2505050565b828054600181600116156101000203166002900490600052602060002090601f016020900481019282601f10610e7e57805160ff1916838001178555610eac565b82800160010185558215610eac579182015b82811115610eab578251825591602001919060010190610e90565b5b509050610eb99190610ebd565b5090565b610edf91905b80821115610edb576000816000905550600101610ec3565b5090565b905600a165627a7a723058201b5f8b59baa6793a24c1eb0c2b103ba7daaae9973186d304d7ba667fbf3dd5b80029",
  "source": "pragma solidity ^0.4.19;\n\nlibrary Member {\n    \n    struct Members {\n        bool exists;\n        uint index;\n        string name;\n    }\n\n    struct Account {\n        address id;\n        uint index;\n        string company;\n        string country;\n        string industry;\n        bool active;\n    }\n    \n    struct Data {\n        bool initialised;\n        mapping (address => Members) entries;\n        mapping (address => Account) companies;\n        address[] members;\n        address[] company;\n    }\n    \n    event MemberAdded(address indexed memberAddress, string name, uint totalAfter);\n    event CompanyAdded(address indexed settlerAddress, string name, uint totalAfter);\n    \n    function isMember(Data storage self, address memberAddress) internal view returns (bool) {\n        return self.entries[memberAddress].exists;\n    }\n    \n    function isCompany(Data storage self, address _companyAddress) internal view returns (bool) {\n        return self.companies[_companyAddress].active;\n    }\n    \n    function add(Data storage self, address memberAddress, string memberName) internal {\n        require(!self.entries[memberAddress].exists);\n        self.members.push(memberAddress);\n        self.entries[memberAddress] = Members(true, self.members.length - 1, memberName);\n        emit MemberAdded(memberAddress, memberName, self.members.length);\n    }\n    \n    function Company(Data storage self, address _companyAddress, string _companyName, string _companyResidence, string _industry) internal {\n        require (!self.entries[_companyAddress].exists);\n        self.company.push(_companyAddress);\n        self.companies[_companyAddress] = Account(_companyAddress, self.company.length - 1, _companyName, _companyResidence, _industry, true);\n        emit CompanyAdded(_companyAddress, _companyName, self.company.length);\n    }\n    \n}\n\nimport \"./SupplyAccessControl.sol\";\n\ncontract Company is SupplyAccessControl {\n    \n    using Member for Member.Data;\n    \n    Member.Data members;\n    \n    modifier onlyMember {\n        require(members.isMember(msg.sender));\n        _;\n    }\n    \n    modifier onlyCompany {\n        require(members.isCompany(msg.sender));\n        _;\n    }\n    \n    function addMember(address _memberAddress, string _memberName) public {\n        members.add(_memberAddress, _memberName);\n    }\n    \n    function addCompany(address _companyAddress, string _settlerName, string _companyResidence, string _industry) public onlyCLevel() {\n        members.Company(_companyAddress, _settlerName, _companyResidence, _industry);\n    }\n}",
  "sourcePath": "/Users/connor/FinalProject/contracts/Company.sol",
  "compiler": {
    "name": "solc",
    "version": "0.4.24+commit.e67f0147.Emscripten.clang"
  },
  "schemaVersion": "2.0.1",
  "updatedAt": "2018-08-25T15:49:47.441Z"
}