{
  "contractName": "ERC721Holder",
  "abi": [
    {
      "constant": false,
      "inputs": [
        {
          "name": "",
          "type": "address"
        },
        {
          "name": "",
          "type": "address"
        },
        {
          "name": "",
          "type": "uint256"
        },
        {
          "name": "",
          "type": "bytes"
        }
      ],
      "name": "onERC721Received",
      "outputs": [
        {
          "name": "",
          "type": "bytes4"
        }
      ],
      "payable": false,
      "stateMutability": "nonpayable",
      "type": "function"
    }
  ],
  "bytecode": "0x608060405234801561001057600080fd5b506101a7806100206000396000f300608060405260043610610041576000357c0100000000000000000000000000000000000000000000000000000000900463ffffffff168063150b7a0214610046575b600080fd5b34801561005257600080fd5b506100f7600480360381019080803573ffffffffffffffffffffffffffffffffffffffff169060200190929190803573ffffffffffffffffffffffffffffffffffffffff16906020019092919080359060200190929190803590602001908201803590602001908080601f016020809104026020016040519081016040528093929190818152602001838380828437820191505050505050919291929050505061014b565b60405180827bffffffffffffffffffffffffffffffffffffffffffffffffffffffff19167bffffffffffffffffffffffffffffffffffffffffffffffffffffffff1916815260200191505060405180910390f35b600063150b7a027c01000000000000000000000000000000000000000000000000000000000290509493505050505600a165627a7a72305820d86e92fd2df12473368a6fb2afae2e9d6121d08ba41ee8c0c4192754c590ea8d0029",
  "source": "pragma solidity ^0.4.24;\n\nimport \"./ERC721Receiver.sol\";\n\ncontract ERC721Holder is ERC721Receiver {\n\n  function onERC721Received(address, address, uint256, bytes) public returns(bytes4) {\n    return ERC721_RECEIVED;\n\n  }\n  \n}",
  "sourcePath": "/Users/connor/FinalProject/contracts/ERC721Holder.sol",
  "compiler": {
    "name": "solc",
    "version": "0.4.24+commit.e67f0147.Emscripten.clang"
  },
  "schemaVersion": "2.0.1",
  "updatedAt": "2018-08-25T15:49:47.427Z"
}