{
  "contractName": "PackageFactory",
  "abi": [
    {
      "constant": false,
      "inputs": [
        {
          "name": "_tokenId",
          "type": "uint256"
        },
        {
          "name": "_uri",
          "type": "string"
        }
      ],
      "name": "_setTokenURI",
      "outputs": [],
      "payable": false,
      "stateMutability": "nonpayable",
      "type": "function"
    },
    {
      "constant": true,
      "inputs": [
        {
          "name": "_interfaceId",
          "type": "bytes4"
        }
      ],
      "name": "supportsInterface",
      "outputs": [
        {
          "name": "",
          "type": "bool"
        }
      ],
      "payable": false,
      "stateMutability": "view",
      "type": "function"
    },
    {
      "constant": false,
      "inputs": [
        {
          "name": "_newCOO",
          "type": "address"
        }
      ],
      "name": "addCOO",
      "outputs": [],
      "payable": false,
      "stateMutability": "nonpayable",
      "type": "function"
    },
    {
      "constant": true,
      "inputs": [],
      "name": "name",
      "outputs": [
        {
          "name": "",
          "type": "string"
        }
      ],
      "payable": false,
      "stateMutability": "view",
      "type": "function"
    },
    {
      "constant": true,
      "inputs": [
        {
          "name": "_tokenId",
          "type": "uint256"
        }
      ],
      "name": "getApproved",
      "outputs": [
        {
          "name": "",
          "type": "address"
        }
      ],
      "payable": false,
      "stateMutability": "view",
      "type": "function"
    },
    {
      "constant": false,
      "inputs": [
        {
          "name": "_to",
          "type": "address"
        },
        {
          "name": "_tokenId",
          "type": "uint256"
        }
      ],
      "name": "approve",
      "outputs": [],
      "payable": false,
      "stateMutability": "nonpayable",
      "type": "function"
    },
    {
      "constant": true,
      "inputs": [],
      "name": "totalSupply",
      "outputs": [
        {
          "name": "",
          "type": "uint256"
        }
      ],
      "payable": false,
      "stateMutability": "view",
      "type": "function"
    },
    {
      "constant": true,
      "inputs": [],
      "name": "InterfaceId_ERC165",
      "outputs": [
        {
          "name": "",
          "type": "bytes4"
        }
      ],
      "payable": false,
      "stateMutability": "view",
      "type": "function"
    },
    {
      "constant": false,
      "inputs": [
        {
          "name": "_companyAddress",
          "type": "address"
        },
        {
          "name": "_settlerName",
          "type": "string"
        },
        {
          "name": "_companyResidence",
          "type": "string"
        },
        {
          "name": "_industry",
          "type": "string"
        }
      ],
      "name": "addCompany",
      "outputs": [],
      "payable": false,
      "stateMutability": "nonpayable",
      "type": "function"
    },
    {
      "constant": false,
      "inputs": [
        {
          "name": "_from",
          "type": "address"
        },
        {
          "name": "_tokenId",
          "type": "uint256"
        }
      ],
      "name": "removeTokenFrom",
      "outputs": [],
      "payable": false,
      "stateMutability": "nonpayable",
      "type": "function"
    },
    {
      "constant": false,
      "inputs": [
        {
          "name": "_newCTO",
          "type": "address"
        }
      ],
      "name": "addCTO",
      "outputs": [],
      "payable": false,
      "stateMutability": "nonpayable",
      "type": "function"
    },
    {
      "constant": false,
      "inputs": [
        {
          "name": "_from",
          "type": "address"
        },
        {
          "name": "_to",
          "type": "address"
        },
        {
          "name": "_tokenId",
          "type": "uint256"
        }
      ],
      "name": "transferFrom",
      "outputs": [],
      "payable": false,
      "stateMutability": "nonpayable",
      "type": "function"
    },
    {
      "constant": true,
      "inputs": [
        {
          "name": "_owner",
          "type": "address"
        },
        {
          "name": "_index",
          "type": "uint256"
        }
      ],
      "name": "tokenOfOwnerByIndex",
      "outputs": [
        {
          "name": "",
          "type": "uint256"
        }
      ],
      "payable": false,
      "stateMutability": "view",
      "type": "function"
    },
    {
      "constant": true,
      "inputs": [],
      "name": "CFO",
      "outputs": [
        {
          "name": "",
          "type": "address"
        }
      ],
      "payable": false,
      "stateMutability": "view",
      "type": "function"
    },
    {
      "constant": false,
      "inputs": [],
      "name": "withdraw",
      "outputs": [],
      "payable": false,
      "stateMutability": "nonpayable",
      "type": "function"
    },
    {
      "constant": true,
      "inputs": [],
      "name": "CTO",
      "outputs": [
        {
          "name": "",
          "type": "address"
        }
      ],
      "payable": false,
      "stateMutability": "view",
      "type": "function"
    },
    {
      "constant": false,
      "inputs": [
        {
          "name": "_to",
          "type": "address"
        },
        {
          "name": "_tokenId",
          "type": "uint256"
        }
      ],
      "name": "mint",
      "outputs": [],
      "payable": false,
      "stateMutability": "nonpayable",
      "type": "function"
    },
    {
      "constant": false,
      "inputs": [
        {
          "name": "_from",
          "type": "address"
        },
        {
          "name": "_to",
          "type": "address"
        },
        {
          "name": "_tokenId",
          "type": "uint256"
        }
      ],
      "name": "safeTransferFrom",
      "outputs": [],
      "payable": false,
      "stateMutability": "nonpayable",
      "type": "function"
    },
    {
      "constant": true,
      "inputs": [
        {
          "name": "",
          "type": "uint256"
        }
      ],
      "name": "allTokensIndex",
      "outputs": [
        {
          "name": "",
          "type": "uint256"
        }
      ],
      "payable": false,
      "stateMutability": "view",
      "type": "function"
    },
    {
      "constant": false,
      "inputs": [
        {
          "name": "_to",
          "type": "address"
        },
        {
          "name": "_tokenId",
          "type": "uint256"
        }
      ],
      "name": "_mint",
      "outputs": [],
      "payable": false,
      "stateMutability": "nonpayable",
      "type": "function"
    },
    {
      "constant": true,
      "inputs": [
        {
          "name": "_tokenId",
          "type": "uint256"
        }
      ],
      "name": "exists",
      "outputs": [
        {
          "name": "",
          "type": "bool"
        }
      ],
      "payable": false,
      "stateMutability": "view",
      "type": "function"
    },
    {
      "constant": true,
      "inputs": [
        {
          "name": "_index",
          "type": "uint256"
        }
      ],
      "name": "tokenByIndex",
      "outputs": [
        {
          "name": "",
          "type": "uint256"
        }
      ],
      "payable": false,
      "stateMutability": "view",
      "type": "function"
    },
    {
      "constant": false,
      "inputs": [
        {
          "name": "_owner",
          "type": "address"
        },
        {
          "name": "_tokenId",
          "type": "uint256"
        }
      ],
      "name": "_burn",
      "outputs": [],
      "payable": false,
      "stateMutability": "nonpayable",
      "type": "function"
    },
    {
      "constant": true,
      "inputs": [
        {
          "name": "",
          "type": "uint256"
        }
      ],
      "name": "allTokens",
      "outputs": [
        {
          "name": "",
          "type": "uint256"
        }
      ],
      "payable": false,
      "stateMutability": "view",
      "type": "function"
    },
    {
      "constant": true,
      "inputs": [
        {
          "name": "_tokenId",
          "type": "uint256"
        }
      ],
      "name": "ownerOf",
      "outputs": [
        {
          "name": "",
          "type": "address"
        }
      ],
      "payable": false,
      "stateMutability": "view",
      "type": "function"
    },
    {
      "constant": true,
      "inputs": [
        {
          "name": "",
          "type": "uint256"
        }
      ],
      "name": "tokenURIs",
      "outputs": [
        {
          "name": "",
          "type": "string"
        }
      ],
      "payable": false,
      "stateMutability": "view",
      "type": "function"
    },
    {
      "constant": true,
      "inputs": [
        {
          "name": "_owner",
          "type": "address"
        }
      ],
      "name": "balanceOf",
      "outputs": [
        {
          "name": "",
          "type": "uint256"
        }
      ],
      "payable": false,
      "stateMutability": "view",
      "type": "function"
    },
    {
      "constant": true,
      "inputs": [
        {
          "name": "",
          "type": "uint256"
        }
      ],
      "name": "ownedTokensIndex",
      "outputs": [
        {
          "name": "",
          "type": "uint256"
        }
      ],
      "payable": false,
      "stateMutability": "view",
      "type": "function"
    },
    {
      "constant": true,
      "inputs": [],
      "name": "owner",
      "outputs": [
        {
          "name": "",
          "type": "address"
        }
      ],
      "payable": false,
      "stateMutability": "view",
      "type": "function"
    },
    {
      "constant": true,
      "inputs": [],
      "name": "symbol",
      "outputs": [
        {
          "name": "",
          "type": "string"
        }
      ],
      "payable": false,
      "stateMutability": "view",
      "type": "function"
    },
    {
      "constant": false,
      "inputs": [
        {
          "name": "_owner",
          "type": "address"
        },
        {
          "name": "_tokenId",
          "type": "uint256"
        }
      ],
      "name": "burn",
      "outputs": [],
      "payable": false,
      "stateMutability": "nonpayable",
      "type": "function"
    },
    {
      "constant": true,
      "inputs": [],
      "name": "CEO",
      "outputs": [
        {
          "name": "",
          "type": "address"
        }
      ],
      "payable": false,
      "stateMutability": "view",
      "type": "function"
    },
    {
      "constant": false,
      "inputs": [
        {
          "name": "_to",
          "type": "address"
        },
        {
          "name": "_approved",
          "type": "bool"
        }
      ],
      "name": "setApprovalForAll",
      "outputs": [],
      "payable": false,
      "stateMutability": "nonpayable",
      "type": "function"
    },
    {
      "constant": true,
      "inputs": [],
      "name": "symbol_",
      "outputs": [
        {
          "name": "",
          "type": "string"
        }
      ],
      "payable": false,
      "stateMutability": "view",
      "type": "function"
    },
    {
      "constant": false,
      "inputs": [
        {
          "name": "_from",
          "type": "address"
        },
        {
          "name": "_to",
          "type": "address"
        },
        {
          "name": "_tokenId",
          "type": "uint256"
        },
        {
          "name": "_data",
          "type": "bytes"
        }
      ],
      "name": "safeTransferFrom",
      "outputs": [],
      "payable": false,
      "stateMutability": "nonpayable",
      "type": "function"
    },
    {
      "constant": false,
      "inputs": [
        {
          "name": "_memberAddress",
          "type": "address"
        },
        {
          "name": "_memberName",
          "type": "string"
        }
      ],
      "name": "addMember",
      "outputs": [],
      "payable": false,
      "stateMutability": "nonpayable",
      "type": "function"
    },
    {
      "constant": true,
      "inputs": [
        {
          "name": "_tokenId",
          "type": "uint256"
        }
      ],
      "name": "tokenURI",
      "outputs": [
        {
          "name": "",
          "type": "string"
        }
      ],
      "payable": false,
      "stateMutability": "view",
      "type": "function"
    },
    {
      "constant": true,
      "inputs": [
        {
          "name": "",
          "type": "uint256"
        },
        {
          "name": "",
          "type": "address"
        }
      ],
      "name": "packageOwner",
      "outputs": [
        {
          "name": "id",
          "type": "uint256"
        },
        {
          "name": "packageNum",
          "type": "uint256"
        },
        {
          "name": "date",
          "type": "uint256"
        },
        {
          "name": "name",
          "type": "string"
        },
        {
          "name": "location",
          "type": "string"
        },
        {
          "name": "contents",
          "type": "string"
        },
        {
          "name": "Status",
          "type": "uint8"
        },
        {
          "name": "active",
          "type": "bool"
        }
      ],
      "payable": false,
      "stateMutability": "view",
      "type": "function"
    },
    {
      "constant": true,
      "inputs": [
        {
          "name": "",
          "type": "address"
        },
        {
          "name": "",
          "type": "uint256"
        }
      ],
      "name": "ownedTokens",
      "outputs": [
        {
          "name": "",
          "type": "uint256"
        }
      ],
      "payable": false,
      "stateMutability": "view",
      "type": "function"
    },
    {
      "constant": true,
      "inputs": [],
      "name": "COO",
      "outputs": [
        {
          "name": "",
          "type": "address"
        }
      ],
      "payable": false,
      "stateMutability": "view",
      "type": "function"
    },
    {
      "constant": true,
      "inputs": [],
      "name": "name_",
      "outputs": [
        {
          "name": "",
          "type": "string"
        }
      ],
      "payable": false,
      "stateMutability": "view",
      "type": "function"
    },
    {
      "constant": true,
      "inputs": [
        {
          "name": "_owner",
          "type": "address"
        },
        {
          "name": "_operator",
          "type": "address"
        }
      ],
      "name": "isApprovedForAll",
      "outputs": [
        {
          "name": "",
          "type": "bool"
        }
      ],
      "payable": false,
      "stateMutability": "view",
      "type": "function"
    },
    {
      "constant": true,
      "inputs": [],
      "name": "packageCount",
      "outputs": [
        {
          "name": "",
          "type": "uint256"
        }
      ],
      "payable": false,
      "stateMutability": "view",
      "type": "function"
    },
    {
      "constant": false,
      "inputs": [
        {
          "name": "_newCFO",
          "type": "address"
        }
      ],
      "name": "addCFO",
      "outputs": [],
      "payable": false,
      "stateMutability": "nonpayable",
      "type": "function"
    },
    {
      "inputs": [],
      "payable": false,
      "stateMutability": "nonpayable",
      "type": "constructor"
    },
    {
      "payable": true,
      "stateMutability": "payable",
      "type": "fallback"
    },
    {
      "anonymous": false,
      "inputs": [
        {
          "indexed": false,
          "name": "_id",
          "type": "uint256"
        },
        {
          "indexed": false,
          "name": "_date",
          "type": "uint256"
        },
        {
          "indexed": false,
          "name": "_name",
          "type": "string"
        },
        {
          "indexed": false,
          "name": "_location",
          "type": "string"
        },
        {
          "indexed": false,
          "name": "_contents",
          "type": "string"
        },
        {
          "indexed": false,
          "name": "index",
          "type": "uint256"
        }
      ],
      "name": "packageCreated",
      "type": "event"
    },
    {
      "anonymous": false,
      "inputs": [
        {
          "indexed": false,
          "name": "_id",
          "type": "uint256"
        },
        {
          "indexed": false,
          "name": "newId",
          "type": "uint256"
        },
        {
          "indexed": false,
          "name": "_tokenId",
          "type": "uint256"
        },
        {
          "indexed": false,
          "name": "_signer",
          "type": "address"
        }
      ],
      "name": "packageSigned",
      "type": "event"
    },
    {
      "anonymous": false,
      "inputs": [
        {
          "indexed": true,
          "name": "_from",
          "type": "address"
        },
        {
          "indexed": true,
          "name": "_to",
          "type": "address"
        },
        {
          "indexed": true,
          "name": "_tokenId",
          "type": "uint256"
        }
      ],
      "name": "Transfer",
      "type": "event"
    },
    {
      "anonymous": false,
      "inputs": [
        {
          "indexed": true,
          "name": "_owner",
          "type": "address"
        },
        {
          "indexed": true,
          "name": "_approved",
          "type": "address"
        },
        {
          "indexed": true,
          "name": "_tokenId",
          "type": "uint256"
        }
      ],
      "name": "Approval",
      "type": "event"
    },
    {
      "anonymous": false,
      "inputs": [
        {
          "indexed": true,
          "name": "_owner",
          "type": "address"
        },
        {
          "indexed": true,
          "name": "_operator",
          "type": "address"
        },
        {
          "indexed": false,
          "name": "_approved",
          "type": "bool"
        }
      ],
      "name": "ApprovalForAll",
      "type": "event"
    },
    {
      "constant": false,
      "inputs": [
        {
          "name": "_id",
          "type": "uint256"
        },
        {
          "name": "_date",
          "type": "uint256"
        },
        {
          "name": "_name",
          "type": "string"
        },
        {
          "name": "_location",
          "type": "string"
        },
        {
          "name": "_contents",
          "type": "string"
        }
      ],
      "name": "createPackage",
      "outputs": [],
      "payable": false,
      "stateMutability": "nonpayable",
      "type": "function"
    },
    {
      "constant": false,
      "inputs": [
        {
          "name": "_id",
          "type": "uint256"
        },
        {
          "name": "_tokenId",
          "type": "uint256"
        },
        {
          "name": "_signer",
          "type": "address"
        }
      ],
      "name": "signPackage",
      "outputs": [
        {
          "name": "",
          "type": "uint256"
        }
      ],
      "payable": false,
      "stateMutability": "nonpayable",
      "type": "function"
    },
    {
      "constant": true,
      "inputs": [],
      "name": "getPackages",
      "outputs": [
        {
          "name": "",
          "type": "uint256"
        }
      ],
      "payable": false,
      "stateMutability": "view",
      "type": "function"
    },
    {
      "constant": true,
      "inputs": [
        {
          "name": "_packageNum",
          "type": "uint256"
        },
        {
          "name": "_companyAddress",
          "type": "address"
        }
      ],
      "name": "getPackage",
      "outputs": [
        {
          "name": "id",
          "type": "uint256"
        },
        {
          "name": "date",
          "type": "uint256"
        },
        {
          "name": "name",
          "type": "string"
        },
        {
          "name": "location",
          "type": "string"
        },
        {
          "name": "contents",
          "type": "string"
        }
      ],
      "payable": false,
      "stateMutability": "view",
      "type": "function"
    }
  ],
  "bytecode": "0x6080604052670de0b6b3a76400006017553480156200001d57600080fd5b50336000806101000a81548173ffffffffffffffffffffffffffffffffffffffff021916908373ffffffffffffffffffffffffffffffffffffffff1602179055506200009b6301ffc9a77c01000000000000000000000000000000000000000000000000000000000262000186640100000000026401000000009004565b6040805190810160405280600c81526020017f50726f6772616d546f6b656e0000000000000000000000000000000000000000815250600e9080519060200190620000e892919062000245565b506040805190810160405280600381526020017f4350540000000000000000000000000000000000000000000000000000000000815250600f90805190602001906200013692919062000245565b5033601560006101000a81548173ffffffffffffffffffffffffffffffffffffffff021916908373ffffffffffffffffffffffffffffffffffffffff1602179055506000601681905550620002f4565b63ffffffff7c010000000000000000000000000000000000000000000000000000000002817bffffffffffffffffffffffffffffffffffffffffffffffffffffffff191614151515620001d857600080fd5b600160096000837bffffffffffffffffffffffffffffffffffffffffffffffffffffffff19167bffffffffffffffffffffffffffffffffffffffffffffffffffffffff1916815260200190815260200160002060006101000a81548160ff02191690831515021790555050565b828054600181600116156101000203166002900490600052602060002090601f016020900481019282601f106200028857805160ff1916838001178555620002b9565b82800160010185558215620002b9579182015b82811115620002b85782518255916020019190600101906200029b565b5b509050620002c89190620002cc565b5090565b620002f191905b80821115620002ed576000816000905550600101620002d3565b5090565b90565b614beb80620003046000396000f300608060405260043610610246576000357c0100000000000000000000000000000000000000000000000000000000900463ffffffff168063015388681461024857806301ffc9a7146102bb5780630340752f1461031f57806306fdde0314610362578063081812fc146103f2578063095ea7b31461045f57806309c2e4a4146104ac57806318160ddd146105b557806319fa8f50146105e05780631a99143b146106495780631c1f6a3f1461075e578063219fb414146107ab57806323b872dd146107ee5780632f745c591461085b57806330d500bf146108bc5780633ccfd60b146109135780633d01bdec1461092a57806340c10f191461098157806342842e0e146109ce57806342d8edea14610a3b5780634e6ec24714610a7c5780634f558e7914610ac95780634f6ccce714610b0e5780635c05a89f14610b4f5780636161eb1814610b7a5780636283f79c14610bc7578063634282af14610d735780636352211e14610db45780636c8b703f14610e2157806370a0823114610ec757806374e2436714610f1e5780638da5cb5b14610f5f57806395d89b4114610fb65780639dc29fac14611046578063a108857114611093578063a22cb465146110ea578063af17dea614611139578063affb6504146111c9578063b88d4fde14611234578063c127c247146112e7578063c87b56dd14611370578063dfb379a914611416578063e149f036146115e9578063e1b27e6b1461164a578063e2b9e186146116a1578063e985e9c514611731578063ee0ebe0c146117ac578063fd4421a1146117d7575b005b34801561025457600080fd5b506102b960048036038101908080359060200190929190803590602001908201803590602001908080601f016020809104026020016040519081016040528093929190818152602001838380828437820191505050505050919291929050505061181a565b005b3480156102c757600080fd5b5061030560048036038101908080357bffffffffffffffffffffffffffffffffffffffffffffffffffffffff1916906020019092919050505061185a565b604051808215151515815260200191505060405180910390f35b34801561032b57600080fd5b50610360600480360381019080803573ffffffffffffffffffffffffffffffffffffffff1690602001909291905050506118c2565b005b34801561036e57600080fd5b50610377611942565b6040518080602001828103825283818151815260200191508051906020019080838360005b838110156103b757808201518184015260208101905061039c565b50505050905090810190601f1680156103e45780820380516001836020036101000a031916815260200191505b509250505060405180910390f35b3480156103fe57600080fd5b5061041d600480360381019080803590602001909291905050506119e4565b604051808273ffffffffffffffffffffffffffffffffffffffff1673ffffffffffffffffffffffffffffffffffffffff16815260200191505060405180910390f35b34801561046b57600080fd5b506104aa600480360381019080803573ffffffffffffffffffffffffffffffffffffffff16906020019092919080359060200190929190505050611a21565b005b3480156104b857600080fd5b506105b36004803603810190808035906020019092919080359060200190929190803590602001908201803590602001908080601f0160208091040260200160405190810160405280939291908181526020018383808284378201915050505050509192919290803590602001908201803590602001908080601f0160208091040260200160405190810160405280939291908181526020018383808284378201915050505050509192919290803590602001908201803590602001908080601f0160208091040260200160405190810160405280939291908181526020018383808284378201915050505050509192919290505050611b66565b005b3480156105c157600080fd5b506105ca612247565b6040518082815260200191505060405180910390f35b3480156105ec57600080fd5b506105f5612254565b60405180827bffffffffffffffffffffffffffffffffffffffffffffffffffffffff19167bffffffffffffffffffffffffffffffffffffffffffffffffffffffff1916815260200191505060405180910390f35b34801561065557600080fd5b5061075c600480360381019080803573ffffffffffffffffffffffffffffffffffffffff169060200190929190803590602001908201803590602001908080601f0160208091040260200160405190810160405280939291908181526020018383808284378201915050505050509192919290803590602001908201803590602001908080601f0160208091040260200160405190810160405280939291908181526020018383808284378201915050505050509192919290803590602001908201803590602001908080601f016020809104026020016040519081016040528093929190818152602001838380828437820191505050505050919291929050505061227b565b005b34801561076a57600080fd5b506107a9600480360381019080803573ffffffffffffffffffffffffffffffffffffffff169060200190929190803590602001909291905050506123fe565b005b3480156107b757600080fd5b506107ec600480360381019080803573ffffffffffffffffffffffffffffffffffffffff1690602001909291905050506125ba565b005b3480156107fa57600080fd5b50610859600480360381019080803573ffffffffffffffffffffffffffffffffffffffff169060200190929190803573ffffffffffffffffffffffffffffffffffffffff1690602001909291908035906020019092919050505061263a565b005b34801561086757600080fd5b506108a6600480360381019080803573ffffffffffffffffffffffffffffffffffffffff16906020019092919080359060200190929190505050612745565b6040518082815260200191505060405180910390f35b3480156108c857600080fd5b506108d16127bc565b604051808273ffffffffffffffffffffffffffffffffffffffff1673ffffffffffffffffffffffffffffffffffffffff16815260200191505060405180910390f35b34801561091f57600080fd5b506109286127e2565b005b34801561093657600080fd5b5061093f6128be565b604051808273ffffffffffffffffffffffffffffffffffffffff1673ffffffffffffffffffffffffffffffffffffffff16815260200191505060405180910390f35b34801561098d57600080fd5b506109cc600480360381019080803573ffffffffffffffffffffffffffffffffffffffff169060200190929190803590602001909291905050506128e4565b005b3480156109da57600080fd5b50610a39600480360381019080803573ffffffffffffffffffffffffffffffffffffffff169060200190929190803573ffffffffffffffffffffffffffffffffffffffff1690602001909291908035906020019092919050505061298a565b005b348015610a4757600080fd5b50610a66600480360381019080803590602001909291905050506129ab565b6040518082815260200191505060405180910390f35b348015610a8857600080fd5b50610ac7600480360381019080803573ffffffffffffffffffffffffffffffffffffffff169060200190929190803590602001909291905050506129c3565b005b348015610ad557600080fd5b50610af460048036038101908080359060200190929190505050612a1a565b604051808215151515815260200191505060405180910390f35b348015610b1a57600080fd5b50610b3960048036038101908080359060200190929190505050612a8c565b6040518082815260200191505060405180910390f35b348015610b5b57600080fd5b50610b64612ac4565b6040518082815260200191505060405180910390f35b348015610b8657600080fd5b50610bc5600480360381019080803573ffffffffffffffffffffffffffffffffffffffff16906020019092919080359060200190929190505050612ad1565b005b348015610bd357600080fd5b50610c1260048036038101908080359060200190929190803573ffffffffffffffffffffffffffffffffffffffff169060200190929190505050612c09565b60405180868152602001858152602001806020018060200180602001848103845287818151815260200191508051906020019080838360005b83811015610c66578082015181840152602081019050610c4b565b50505050905090810190601f168015610c935780820380516001836020036101000a031916815260200191505b50848103835286818151815260200191508051906020019080838360005b83811015610ccc578082015181840152602081019050610cb1565b50505050905090810190601f168015610cf95780820380516001836020036101000a031916815260200191505b50848103825285818151815260200191508051906020019080838360005b83811015610d32578082015181840152602081019050610d17565b50505050905090810190601f168015610d5f5780820380516001836020036101000a031916815260200191505b509850505050505050505060405180910390f35b348015610d7f57600080fd5b50610d9e60048036038101908080359060200190929190505050612f9a565b6040518082815260200191505060405180910390f35b348015610dc057600080fd5b50610ddf60048036038101908080359060200190929190505050612fbd565b604051808273ffffffffffffffffffffffffffffffffffffffff1673ffffffffffffffffffffffffffffffffffffffff16815260200191505060405180910390f35b348015610e2d57600080fd5b50610e4c6004803603810190808035906020019092919050505061303b565b6040518080602001828103825283818151815260200191508051906020019080838360005b83811015610e8c578082015181840152602081019050610e71565b50505050905090810190601f168015610eb95780820380516001836020036101000a031916815260200191505b509250505060405180910390f35b348015610ed357600080fd5b50610f08600480360381019080803573ffffffffffffffffffffffffffffffffffffffff1690602001909291905050506130eb565b6040518082815260200191505060405180910390f35b348015610f2a57600080fd5b50610f496004803603810190808035906020019092919050505061316f565b6040518082815260200191505060405180910390f35b348015610f6b57600080fd5b50610f74613187565b604051808273ffffffffffffffffffffffffffffffffffffffff1673ffffffffffffffffffffffffffffffffffffffff16815260200191505060405180910390f35b348015610fc257600080fd5b50610fcb6131ad565b6040518080602001828103825283818151815260200191508051906020019080838360005b8381101561100b578082015181840152602081019050610ff0565b50505050905090810190601f1680156110385780820380516001836020036101000a031916815260200191505b509250505060405180910390f35b34801561105257600080fd5b50611091600480360381019080803573ffffffffffffffffffffffffffffffffffffffff1690602001909291908035906020019092919050505061324f565b005b34801561109f57600080fd5b506110a86132c3565b604051808273ffffffffffffffffffffffffffffffffffffffff1673ffffffffffffffffffffffffffffffffffffffff16815260200191505060405180910390f35b3480156110f657600080fd5b50611137600480360381019080803573ffffffffffffffffffffffffffffffffffffffff1690602001909291908035151590602001909291905050506132e8565b005b34801561114557600080fd5b5061114e613424565b6040518080602001828103825283818151815260200191508051906020019080838360005b8381101561118e578082015181840152602081019050611173565b50505050905090810190601f1680156111bb5780820380516001836020036101000a031916815260200191505b509250505060405180910390f35b3480156111d557600080fd5b5061121e6004803603810190808035906020019092919080359060200190929190803573ffffffffffffffffffffffffffffffffffffffff1690602001909291905050506134c2565b6040518082815260200191505060405180910390f35b34801561124057600080fd5b506112e5600480360381019080803573ffffffffffffffffffffffffffffffffffffffff169060200190929190803573ffffffffffffffffffffffffffffffffffffffff16906020019092919080359060200190929190803590602001908201803590602001908080601f01602080910402602001604051908101604052809392919081815260200183838082843782019150505050505091929192905050506136f5565b005b3480156112f357600080fd5b5061136e600480360381019080803573ffffffffffffffffffffffffffffffffffffffff169060200190929190803590602001908201803590602001908080601f016020809104026020016040519081016040528093929190818152602001838380828437820191505050505050919291929050505061371d565b005b34801561137c57600080fd5b5061139b60048036038101908080359060200190929190505050613737565b6040518080602001828103825283818151815260200191508051906020019080838360005b838110156113db5780820151818401526020810190506113c0565b50505050905090810190601f1680156114085780820380516001836020036101000a031916815260200191505b509250505060405180910390f35b34801561142257600080fd5b5061146160048036038101908080359060200190929190803573ffffffffffffffffffffffffffffffffffffffff169060200190929190505050613800565b6040518089815260200188815260200187815260200180602001806020018060200186600281111561148f57fe5b60ff16815260200185151515158152602001848103845289818151815260200191508051906020019080838360005b838110156114d95780820151818401526020810190506114be565b50505050905090810190601f1680156115065780820380516001836020036101000a031916815260200191505b50848103835288818151815260200191508051906020019080838360005b8381101561153f578082015181840152602081019050611524565b50505050905090810190601f16801561156c5780820380516001836020036101000a031916815260200191505b50848103825287818151815260200191508051906020019080838360005b838110156115a557808201518184015260208101905061158a565b50505050905090810190601f1680156115d25780820380516001836020036101000a031916815260200191505b509b50505050505050505050505060405180910390f35b3480156115f557600080fd5b50611634600480360381019080803573ffffffffffffffffffffffffffffffffffffffff16906020019092919080359060200190929190505050613a37565b6040518082815260200191505060405180910390f35b34801561165657600080fd5b5061165f613a67565b604051808273ffffffffffffffffffffffffffffffffffffffff1673ffffffffffffffffffffffffffffffffffffffff16815260200191505060405180910390f35b3480156116ad57600080fd5b506116b6613a8d565b6040518080602001828103825283818151815260200191508051906020019080838360005b838110156116f65780820151818401526020810190506116db565b50505050905090810190601f1680156117235780820380516001836020036101000a031916815260200191505b509250505060405180910390f35b34801561173d57600080fd5b50611792600480360381019080803573ffffffffffffffffffffffffffffffffffffffff169060200190929190803573ffffffffffffffffffffffffffffffffffffffff169060200190929190505050613b2b565b604051808215151515815260200191505060405180910390f35b3480156117b857600080fd5b506117c1613bbf565b6040518082815260200191505060405180910390f35b3480156117e357600080fd5b50611818600480360381019080803573ffffffffffffffffffffffffffffffffffffffff169060200190929190505050613bc5565b005b61182382612a1a565b151561182e57600080fd5b806014600084815260200190815260200160002090805190602001906118559291906149d3565b505050565b600060096000837bffffffffffffffffffffffffffffffffffffffffffffffffffffffff19167bffffffffffffffffffffffffffffffffffffffffffffffffffffffff1916815260200190815260200160002060009054906101000a900460ff169050919050565b600073ffffffffffffffffffffffffffffffffffffffff168173ffffffffffffffffffffffffffffffffffffffff16141515156118fe57600080fd5b80600260006101000a81548173ffffffffffffffffffffffffffffffffffffffff021916908373ffffffffffffffffffffffffffffffffffffffff16021790555050565b6060600e8054600181600116156101000203166002900480601f0160208091040260200160405190810160405280929190818152602001828054600181600116156101000203166002900480156119da5780601f106119af576101008083540402835291602001916119da565b820191906000526020600020905b8154815290600101906020018083116119bd57829003601f168201915b5050505050905090565b6000600b600083815260200190815260200160002060009054906101000a900473ffffffffffffffffffffffffffffffffffffffff169050919050565b6000611a2c82612fbd565b90508073ffffffffffffffffffffffffffffffffffffffff168373ffffffffffffffffffffffffffffffffffffffff1614151515611a6957600080fd5b8073ffffffffffffffffffffffffffffffffffffffff163373ffffffffffffffffffffffffffffffffffffffff161480611aa95750611aa88133613b2b565b5b1515611ab457600080fd5b82600b600084815260200190815260200160002060006101000a81548173ffffffffffffffffffffffffffffffffffffffff021916908373ffffffffffffffffffffffffffffffffffffffff160217905550818373ffffffffffffffffffffffffffffffffffffffff168273ffffffffffffffffffffffffffffffffffffffff167f8c5be1e5ebec7d5bd14f71427d1e84f3dd0314c0f7b2291e5b200ac8c7c3b92560405160405180910390a4505050565b6000611b70614a53565b611b84336004613c4590919063ffffffff16565b1515611b8f57600080fd5b611b9887613ca1565b915060196000601654815260200190815260200160002060003373ffffffffffffffffffffffffffffffffffffffff1673ffffffffffffffffffffffffffffffffffffffff1681526020019081526020016000206101006040519081016040529081600082015481526020016001820154815260200160028201548152602001600382018054600181600116156101000203166002900480601f016020809104026020016040519081016040528092919081815260200182805460018160011615610100020316600290048015611cb05780601f10611c8557610100808354040283529160200191611cb0565b820191906000526020600020905b815481529060010190602001808311611c9357829003601f168201915b50505050508152602001600482018054600181600116156101000203166002900480601f016020809104026020016040519081016040528092919081815260200182805460018160011615610100020316600290048015611d525780601f10611d2757610100808354040283529160200191611d52565b820191906000526020600020905b815481529060010190602001808311611d3557829003601f168201915b50505050508152602001600582018054600181600116156101000203166002900480601f016020809104026020016040519081016040528092919081815260200182805460018160011615610100020316600290048015611df45780601f10611dc957610100808354040283529160200191611df4565b820191906000526020600020905b815481529060010190602001808311611dd757829003601f168201915b505050505081526020016006820160009054906101000a900460ff166002811115611e1b57fe5b6002811115611e2657fe5b81526020016006820160019054906101000a900460ff161515151581525050905061010060405190810160405280838152602001601654815260200187815260200186815260200185815260200184815260200160006002811115611e8757fe5b81526020016001151581525060196000601654815260200190815260200160002060003373ffffffffffffffffffffffffffffffffffffffff1673ffffffffffffffffffffffffffffffffffffffff1681526020019081526020016000206000820151816000015560208201518160010155604082015181600201556060820151816003019080519060200190611f1f929190614aa6565b506080820151816004019080519060200190611f3c929190614aa6565b5060a0820151816005019080519060200190611f59929190614aa6565b5060c08201518160060160006101000a81548160ff02191690836002811115611f7e57fe5b021790555060e08201518160060160016101000a81548160ff021916908315150217905550905050611fb033836129c3565b600160165401601681905550601881908060018154018082558091505090600182039060005260206000209060070201600090919290919091506000820151816000015560208201518160010155604082015181600201556060820151816003019080519060200190612024929190614aa6565b506080820151816004019080519060200190612041929190614aa6565b5060a082015181600501908051906020019061205e929190614aa6565b5060c08201518160060160006101000a81548160ff0219169083600281111561208357fe5b021790555060e08201518160060160016101000a81548160ff0219169083151502179055505050507ffed260d13ed4743dac9a34ebfb6e0f9164f752e40a27695a960184399b4cca2c878787878760188054905060405180878152602001868152602001806020018060200180602001858152602001848103845288818151815260200191508051906020019080838360005b83811015612131578082015181840152602081019050612116565b50505050905090810190601f16801561215e5780820380516001836020036101000a031916815260200191505b50848103835287818151815260200191508051906020019080838360005b8381101561219757808201518184015260208101905061217c565b50505050905090810190601f1680156121c45780820380516001836020036101000a031916815260200191505b50848103825286818151815260200191508051906020019080838360005b838110156121fd5780820151818401526020810190506121e2565b50505050905090810190601f16801561222a5780820380516001836020036101000a031916815260200191505b50995050505050505050505060405180910390a150505050505050565b6000601280549050905090565b6301ffc9a77c01000000000000000000000000000000000000000000000000000000000281565b6000809054906101000a900473ffffffffffffffffffffffffffffffffffffffff1673ffffffffffffffffffffffffffffffffffffffff163373ffffffffffffffffffffffffffffffffffffffff1614806123235750600160009054906101000a900473ffffffffffffffffffffffffffffffffffffffff1673ffffffffffffffffffffffffffffffffffffffff163373ffffffffffffffffffffffffffffffffffffffff16145b8061237b5750600260009054906101000a900473ffffffffffffffffffffffffffffffffffffffff1673ffffffffffffffffffffffffffffffffffffffff163373ffffffffffffffffffffffffffffffffffffffff16145b806123d35750600360009054906101000a900473ffffffffffffffffffffffffffffffffffffffff1673ffffffffffffffffffffffffffffffffffffffff163373ffffffffffffffffffffffffffffffffffffffff16145b15156123de57600080fd5b6123f8848484846004613d4290949392919063ffffffff16565b50505050565b600080600061240d858561402e565b601160008581526020019081526020016000205492506124796001601060008873ffffffffffffffffffffffffffffffffffffffff1673ffffffffffffffffffffffffffffffffffffffff1681526020019081526020016000208054905061415d90919063ffffffff16565b9150601060008673ffffffffffffffffffffffffffffffffffffffff1673ffffffffffffffffffffffffffffffffffffffff168152602001908152602001600020828154811015156124c757fe5b9060005260206000200154905080601060008773ffffffffffffffffffffffffffffffffffffffff1673ffffffffffffffffffffffffffffffffffffffff1681526020019081526020016000208481548110151561252157fe5b9060005260206000200181905550601060008673ffffffffffffffffffffffffffffffffffffffff1673ffffffffffffffffffffffffffffffffffffffff1681526020019081526020016000208054809190600190036125819190614b26565b50600060116000868152602001908152602001600020819055508260116000838152602001908152602001600020819055505050505050565b600073ffffffffffffffffffffffffffffffffffffffff168173ffffffffffffffffffffffffffffffffffffffff16141515156125f657600080fd5b80600160006101000a81548173ffffffffffffffffffffffffffffffffffffffff021916908373ffffffffffffffffffffffffffffffffffffffff16021790555050565b6126443382614176565b151561264f57600080fd5b600073ffffffffffffffffffffffffffffffffffffffff168373ffffffffffffffffffffffffffffffffffffffff161415151561268b57600080fd5b600073ffffffffffffffffffffffffffffffffffffffff168273ffffffffffffffffffffffffffffffffffffffff16141515156126c757600080fd5b6126d1838261420b565b6126db83826123fe565b6126e5828261430e565b808273ffffffffffffffffffffffffffffffffffffffff168473ffffffffffffffffffffffffffffffffffffffff167fddf252ad1be2c89b69c2b068fc378daa952ba7f163c4a11628f55a4df523b3ef60405160405180910390a4505050565b6000612750836130eb565b8210151561275d57600080fd5b601060008473ffffffffffffffffffffffffffffffffffffffff1673ffffffffffffffffffffffffffffffffffffffff168152602001908152602001600020828154811015156127a957fe5b9060005260206000200154905092915050565b600360009054906101000a900473ffffffffffffffffffffffffffffffffffffffff1681565b6000809054906101000a900473ffffffffffffffffffffffffffffffffffffffff1673ffffffffffffffffffffffffffffffffffffffff163373ffffffffffffffffffffffffffffffffffffffff1614151561283d57600080fd5b6000809054906101000a900473ffffffffffffffffffffffffffffffffffffffff1673ffffffffffffffffffffffffffffffffffffffff166108fc3073ffffffffffffffffffffffffffffffffffffffff16319081150290604051600060405180830381858888f193505050501580156128bb573d6000803e3d6000fd5b50565b600160009054906101000a900473ffffffffffffffffffffffffffffffffffffffff1681565b600073ffffffffffffffffffffffffffffffffffffffff168273ffffffffffffffffffffffffffffffffffffffff161415151561292057600080fd5b61292a828261430e565b808273ffffffffffffffffffffffffffffffffffffffff16600073ffffffffffffffffffffffffffffffffffffffff167fddf252ad1be2c89b69c2b068fc378daa952ba7f163c4a11628f55a4df523b3ef60405160405180910390a45050565b6129a683838360206040519081016040528060008152506136f5565b505050565b60136020528060005260406000206000915090505481565b6129cd82826128e4565b601280549050601360008381526020019081526020016000208190555060128190806001815401808255809150509060018203906000526020600020016000909192909190915055505050565b600080600a600084815260200190815260200160002060009054906101000a900473ffffffffffffffffffffffffffffffffffffffff169050600073ffffffffffffffffffffffffffffffffffffffff168173ffffffffffffffffffffffffffffffffffffffff161415915050919050565b6000612a96612247565b82101515612aa357600080fd5b601282815481101515612ab257fe5b90600052602060002001549050919050565b6000601880549050905090565b6000806000612ae0858561324f565b600060146000868152602001908152602001600020805460018160011615610100020316600290049050141515612b3157601460008581526020019081526020016000206000612b309190614b52565b5b60136000858152602001908152602001600020549250612b60600160128054905061415d90919063ffffffff16565b9150601282815481101515612b7157fe5b9060005260206000200154905080601284815481101515612b8e57fe5b90600052602060002001819055506000601283815481101515612bad57fe5b90600052602060002001819055506012805480919060019003612bd09190614b26565b50600060136000868152602001908152602001600020819055508260136000838152602001908152602001600020819055505050505050565b60008060608060606019600088815260200190815260200160002060008773ffffffffffffffffffffffffffffffffffffffff1673ffffffffffffffffffffffffffffffffffffffff168152602001908152602001600020600001546019600089815260200190815260200160002060008873ffffffffffffffffffffffffffffffffffffffff1673ffffffffffffffffffffffffffffffffffffffff16815260200190815260200160002060020154601960008a815260200190815260200160002060008973ffffffffffffffffffffffffffffffffffffffff1673ffffffffffffffffffffffffffffffffffffffff168152602001908152602001600020600301601960008b815260200190815260200160002060008a73ffffffffffffffffffffffffffffffffffffffff1673ffffffffffffffffffffffffffffffffffffffff168152602001908152602001600020600401601960008c815260200190815260200160002060008b73ffffffffffffffffffffffffffffffffffffffff1673ffffffffffffffffffffffffffffffffffffffff168152602001908152602001600020600501828054600181600116156101000203166002900480601f016020809104026020016040519081016040528092919081815260200182805460018160011615610100020316600290048015612e475780601f10612e1c57610100808354040283529160200191612e47565b820191906000526020600020905b815481529060010190602001808311612e2a57829003601f168201915b50505050509250818054600181600116156101000203166002900480601f016020809104026020016040519081016040528092919081815260200182805460018160011615610100020316600290048015612ee35780601f10612eb857610100808354040283529160200191612ee3565b820191906000526020600020905b815481529060010190602001808311612ec657829003601f168201915b50505050509150808054600181600116156101000203166002900480601f016020809104026020016040519081016040528092919081815260200182805460018160011615610100020316600290048015612f7f5780601f10612f5457610100808354040283529160200191612f7f565b820191906000526020600020905b815481529060010190602001808311612f6257829003601f168201915b50505050509050945094509450945094509295509295909350565b601281815481101515612fa957fe5b906000526020600020016000915090505481565b600080600a600084815260200190815260200160002060009054906101000a900473ffffffffffffffffffffffffffffffffffffffff169050600073ffffffffffffffffffffffffffffffffffffffff168173ffffffffffffffffffffffffffffffffffffffff161415151561303257600080fd5b80915050919050565b60146020528060005260406000206000915090508054600181600116156101000203166002900480601f0160208091040260200160405190810160405280929190818152602001828054600181600116156101000203166002900480156130e35780601f106130b8576101008083540402835291602001916130e3565b820191906000526020600020905b8154815290600101906020018083116130c657829003601f168201915b505050505081565b60008073ffffffffffffffffffffffffffffffffffffffff168273ffffffffffffffffffffffffffffffffffffffff161415151561312857600080fd5b600c60008373ffffffffffffffffffffffffffffffffffffffff1673ffffffffffffffffffffffffffffffffffffffff168152602001908152602001600020549050919050565b60116020528060005260406000206000915090505481565b601560009054906101000a900473ffffffffffffffffffffffffffffffffffffffff1681565b6060600f8054600181600116156101000203166002900480601f0160208091040260200160405190810160405280929190818152602001828054600181600116156101000203166002900480156132455780601f1061321a57610100808354040283529160200191613245565b820191906000526020600020905b81548152906001019060200180831161322857829003601f168201915b5050505050905090565b613259828261420b565b61326382826123fe565b80600073ffffffffffffffffffffffffffffffffffffffff168373ffffffffffffffffffffffffffffffffffffffff167fddf252ad1be2c89b69c2b068fc378daa952ba7f163c4a11628f55a4df523b3ef60405160405180910390a45050565b6000809054906101000a900473ffffffffffffffffffffffffffffffffffffffff1681565b3373ffffffffffffffffffffffffffffffffffffffff168273ffffffffffffffffffffffffffffffffffffffff161415151561332357600080fd5b80600d60003373ffffffffffffffffffffffffffffffffffffffff1673ffffffffffffffffffffffffffffffffffffffff16815260200190815260200160002060008473ffffffffffffffffffffffffffffffffffffffff1673ffffffffffffffffffffffffffffffffffffffff16815260200190815260200160002060006101000a81548160ff0219169083151502179055508173ffffffffffffffffffffffffffffffffffffffff163373ffffffffffffffffffffffffffffffffffffffff167f17307eab39ab6107e8899845ad3d59bd9653f200f220920489ca2b5937696c3183604051808215151515815260200191505060405180910390a35050565b600f8054600181600116156101000203166002900480601f0160208091040260200160405190810160405280929190818152602001828054600181600116156101000203166002900480156134ba5780601f1061348f576101008083540402835291602001916134ba565b820191906000526020600020905b81548152906001019060200180831161349d57829003601f168201915b505050505081565b6000806134d9336004613c4590919063ffffffff16565b15156134e457600080fd5b848484604051602001808481526020018381526020018273ffffffffffffffffffffffffffffffffffffffff1673ffffffffffffffffffffffffffffffffffffffff166c0100000000000000000000000002815260140193505050506040516020818303038152906040526040518082805190602001908083835b602083101515613584578051825260208201915060208101905060208303925061355f565b6001836020036101000a0380198251168184511680821785525050505050509050019150506040518091039020600190049050806019600087815260200190815260200160002060003373ffffffffffffffffffffffffffffffffffffffff1673ffffffffffffffffffffffffffffffffffffffff168152602001908152602001600020600001819055507fa6f233c7430869f8f7cdc2c1936e5c29341011e00d32798ba31e14df1f2659a585828686604051808581526020018481526020018381526020018273ffffffffffffffffffffffffffffffffffffffff1673ffffffffffffffffffffffffffffffffffffffff16815260200194505050505060405180910390a16017546019600083815260200190815260200160002060003373ffffffffffffffffffffffffffffffffffffffff1673ffffffffffffffffffffffffffffffffffffffff168152602001908152602001600020600001548115156136ea57fe5b069150509392505050565b61370084848461263a565b61370c848484846143e5565b151561371757600080fd5b50505050565b613733828260046146079092919063ffffffff16565b5050565b606061374282612a1a565b151561374d57600080fd5b601460008381526020019081526020016000208054600181600116156101000203166002900480601f0160208091040260200160405190810160405280929190818152602001828054600181600116156101000203166002900480156137f45780601f106137c9576101008083540402835291602001916137f4565b820191906000526020600020905b8154815290600101906020018083116137d757829003601f168201915b50505050509050919050565b601960205281600052604060002060205280600052604060002060009150915050806000015490806001015490806002015490806003018054600181600116156101000203166002900480601f0160208091040260200160405190810160405280929190818152602001828054600181600116156101000203166002900480156138cb5780601f106138a0576101008083540402835291602001916138cb565b820191906000526020600020905b8154815290600101906020018083116138ae57829003601f168201915b505050505090806004018054600181600116156101000203166002900480601f0160208091040260200160405190810160405280929190818152602001828054600181600116156101000203166002900480156139695780601f1061393e57610100808354040283529160200191613969565b820191906000526020600020905b81548152906001019060200180831161394c57829003601f168201915b505050505090806005018054600181600116156101000203166002900480601f016020809104026020016040519081016040528092919081815260200182805460018160011615610100020316600290048015613a075780601f106139dc57610100808354040283529160200191613a07565b820191906000526020600020905b8154815290600101906020018083116139ea57829003601f168201915b5050505050908060060160009054906101000a900460ff16908060060160019054906101000a900460ff16905088565b601060205281600052604060002081815481101515613a5257fe5b90600052602060002001600091509150505481565b600260009054906101000a900473ffffffffffffffffffffffffffffffffffffffff1681565b600e8054600181600116156101000203166002900480601f016020809104026020016040519081016040528092919081815260200182805460018160011615610100020316600290048015613b235780601f10613af857610100808354040283529160200191613b23565b820191906000526020600020905b815481529060010190602001808311613b0657829003601f168201915b505050505081565b6000600d60008473ffffffffffffffffffffffffffffffffffffffff1673ffffffffffffffffffffffffffffffffffffffff16815260200190815260200160002060008373ffffffffffffffffffffffffffffffffffffffff1673ffffffffffffffffffffffffffffffffffffffff16815260200190815260200160002060009054906101000a900460ff16905092915050565b60165481565b600073ffffffffffffffffffffffffffffffffffffffff168173ffffffffffffffffffffffffffffffffffffffff1614151515613c0157600080fd5b80600360006101000a81548173ffffffffffffffffffffffffffffffffffffffff021916908373ffffffffffffffffffffffffffffffffffffffff16021790555050565b60008260020160008373ffffffffffffffffffffffffffffffffffffffff1673ffffffffffffffffffffffffffffffffffffffff16815260200190815260200160002060050160009054906101000a900460ff16905092915050565b60008082604051602001808281526020019150506040516020818303038152906040526040518082805190602001908083835b602083101515613cf95780518252602082019150602081019050602083039250613cd4565b6001836020036101000a038019825116818451168082178552505050505050905001915050604051809103902060019004905060175481811515613d3957fe5b06915050919050565b8460010160008573ffffffffffffffffffffffffffffffffffffffff1673ffffffffffffffffffffffffffffffffffffffff16815260200190815260200160002060000160009054906101000a900460ff16151515613da057600080fd5b846004018490806001815401808255809150509060018203906000526020600020016000909192909190916101000a81548173ffffffffffffffffffffffffffffffffffffffff021916908373ffffffffffffffffffffffffffffffffffffffff1602179055505060c0604051908101604052808573ffffffffffffffffffffffffffffffffffffffff16815260200160018760040180549050038152602001848152602001838152602001828152602001600115158152508560020160008673ffffffffffffffffffffffffffffffffffffffff1673ffffffffffffffffffffffffffffffffffffffff16815260200190815260200160002060008201518160000160006101000a81548173ffffffffffffffffffffffffffffffffffffffff021916908373ffffffffffffffffffffffffffffffffffffffff160217905550602082015181600101556040820151816002019080519060200190613f07929190614aa6565b506060820151816003019080519060200190613f24929190614aa6565b506080820151816004019080519060200190613f41929190614aa6565b5060a08201518160050160006101000a81548160ff0219169083151502179055509050508373ffffffffffffffffffffffffffffffffffffffff167fe12738f0e92b7db0a924566381416c9edfd93bec9a1f89b7f07d1e572b3d94168487600401805490506040518080602001838152602001828103825284818151815260200191508051906020019080838360005b83811015613fec578082015181840152602081019050613fd1565b50505050905090810190601f1680156140195780820380516001836020036101000a031916815260200191505b50935050505060405180910390a25050505050565b8173ffffffffffffffffffffffffffffffffffffffff1661404e82612fbd565b73ffffffffffffffffffffffffffffffffffffffff1614151561407057600080fd5b6140c36001600c60008573ffffffffffffffffffffffffffffffffffffffff1673ffffffffffffffffffffffffffffffffffffffff1681526020019081526020016000205461415d90919063ffffffff16565b600c60008473ffffffffffffffffffffffffffffffffffffffff1673ffffffffffffffffffffffffffffffffffffffff168152602001908152602001600020819055506000600a600083815260200190815260200160002060006101000a81548173ffffffffffffffffffffffffffffffffffffffff021916908373ffffffffffffffffffffffffffffffffffffffff1602179055505050565b600082821115151561416b57fe5b818303905092915050565b60008061418283612fbd565b90508073ffffffffffffffffffffffffffffffffffffffff168473ffffffffffffffffffffffffffffffffffffffff1614806141f157508373ffffffffffffffffffffffffffffffffffffffff166141d9846119e4565b73ffffffffffffffffffffffffffffffffffffffff16145b8061420257506142018185613b2b565b5b91505092915050565b8173ffffffffffffffffffffffffffffffffffffffff1661422b82612fbd565b73ffffffffffffffffffffffffffffffffffffffff1614151561424d57600080fd5b600073ffffffffffffffffffffffffffffffffffffffff16600b600083815260200190815260200160002060009054906101000a900473ffffffffffffffffffffffffffffffffffffffff1673ffffffffffffffffffffffffffffffffffffffff1614151561430a576000600b600083815260200190815260200160002060006101000a81548173ffffffffffffffffffffffffffffffffffffffff021916908373ffffffffffffffffffffffffffffffffffffffff1602179055505b5050565b600061431a8383614848565b601060008473ffffffffffffffffffffffffffffffffffffffff1673ffffffffffffffffffffffffffffffffffffffff168152602001908152602001600020805490509050601060008473ffffffffffffffffffffffffffffffffffffffff1673ffffffffffffffffffffffffffffffffffffffff168152602001908152602001600020829080600181540180825580915050906001820390600052602060002001600090919290919091505550806011600084815260200190815260200160002081905550505050565b6000806144078573ffffffffffffffffffffffffffffffffffffffff166149a2565b151561441657600191506145fe565b8473ffffffffffffffffffffffffffffffffffffffff1663150b7a02338887876040518563ffffffff167c0100000000000000000000000000000000000000000000000000000000028152600401808573ffffffffffffffffffffffffffffffffffffffff1673ffffffffffffffffffffffffffffffffffffffff1681526020018473ffffffffffffffffffffffffffffffffffffffff1673ffffffffffffffffffffffffffffffffffffffff16815260200183815260200180602001828103825283818151815260200191508051906020019080838360005b8381101561450b5780820151818401526020810190506144f0565b50505050905090810190601f1680156145385780820380516001836020036101000a031916815260200191505b5095505050505050602060405180830381600087803b15801561455a57600080fd5b505af115801561456e573d6000803e3d6000fd5b505050506040513d602081101561458457600080fd5b8101908080519060200190929190505050905063150b7a027c0100000000000000000000000000000000000000000000000000000000027bffffffffffffffffffffffffffffffffffffffffffffffffffffffff1916817bffffffffffffffffffffffffffffffffffffffffffffffffffffffff19161491505b50949350505050565b8260010160008373ffffffffffffffffffffffffffffffffffffffff1673ffffffffffffffffffffffffffffffffffffffff16815260200190815260200160002060000160009054906101000a900460ff1615151561466557600080fd5b826003018290806001815401808255809150509060018203906000526020600020016000909192909190916101000a81548173ffffffffffffffffffffffffffffffffffffffff021916908373ffffffffffffffffffffffffffffffffffffffff1602179055505060606040519081016040528060011515815260200160018560030180549050038152602001828152508360010160008473ffffffffffffffffffffffffffffffffffffffff1673ffffffffffffffffffffffffffffffffffffffff16815260200190815260200160002060008201518160000160006101000a81548160ff02191690831515021790555060208201518160010155604082015181600201908051906020019061477d929190614aa6565b509050508173ffffffffffffffffffffffffffffffffffffffff167fac4f9610b174640b0a902ce555faa384cc9c9d291750f76e476f26f97bd079b48285600301805490506040518080602001838152602001828103825284818151815260200191508051906020019080838360005b838110156148085780820151818401526020810190506147ed565b50505050905090810190601f1680156148355780820380516001836020036101000a031916815260200191505b50935050505060405180910390a2505050565b600073ffffffffffffffffffffffffffffffffffffffff16600a600083815260200190815260200160002060009054906101000a900473ffffffffffffffffffffffffffffffffffffffff1673ffffffffffffffffffffffffffffffffffffffff161415156148b657600080fd5b81600a600083815260200190815260200160002060006101000a81548173ffffffffffffffffffffffffffffffffffffffff021916908373ffffffffffffffffffffffffffffffffffffffff16021790555061495b6001600c60008573ffffffffffffffffffffffffffffffffffffffff1673ffffffffffffffffffffffffffffffffffffffff168152602001908152602001600020546149b590919063ffffffff16565b600c60008473ffffffffffffffffffffffffffffffffffffffff1673ffffffffffffffffffffffffffffffffffffffff168152602001908152602001600020819055505050565b600080823b905060008111915050919050565b60008082840190508381101515156149c957fe5b8091505092915050565b828054600181600116156101000203166002900490600052602060002090601f016020900481019282601f10614a1457805160ff1916838001178555614a42565b82800160010185558215614a42579182015b82811115614a41578251825591602001919060010190614a26565b5b509050614a4f9190614b9a565b5090565b6101006040519081016040528060008152602001600081526020016000815260200160608152602001606081526020016060815260200160006002811115614a9757fe5b81526020016000151581525090565b828054600181600116156101000203166002900490600052602060002090601f016020900481019282601f10614ae757805160ff1916838001178555614b15565b82800160010185558215614b15579182015b82811115614b14578251825591602001919060010190614af9565b5b509050614b229190614b9a565b5090565b815481835581811115614b4d57818360005260206000209182019101614b4c9190614b9a565b5b505050565b50805460018160011615610100020316600290046000825580601f10614b785750614b97565b601f016020900490600052602060002090810190614b969190614b9a565b5b50565b614bbc91905b80821115614bb8576000816000905550600101614ba0565b5090565b905600a165627a7a72305820703d88934ee60b1288298e47fa4ae1dca70fdf832da63914da924ac5abd53a330029",
  "source": "pragma solidity ^0.4.24;\n\nimport \"./Company.sol\";\nimport \"./ERC721Token.sol\";\n\ncontract PackageFactory is Company, ERC721Token  {\n\n\n\taddress public owner;\n\tuint public packageCount;\n\t\n\tuint idLength = 10 ** 18;\n\t\n\tenum status {packaged, distributed, shelved}\n\n\tstruct Package {\n\t    uint id;\n\t    uint packageNum;\n\t\tuint date;\n\t\tstring name;\n\t\tstring location;\n\t\tstring contents;\n\t\tstatus Status;\n\t\tbool active;\n\t}\n\n\tPackage[] private packages;\n\n\tmapping (uint => mapping(address => Package)) public packageOwner;\n\t\n\tevent packageCreated(uint _id, uint _date, string _name, string _location, string _contents, uint index);\n\tevent packageSigned(uint _id, uint newId, uint _tokenId, address _signer);\n\n\tconstructor () public {\n\t\towner = msg.sender;\n\t\tpackageCount = 0;\n\t}\n\t\n\tfunction createPackage(uint _id, uint _date, string _name, string _location, string _contents) public onlyCompany() {\n\t\tuint Id = createId(_id);\n\t\tPackage memory b = packageOwner[packageCount][msg.sender];\n\t\tpackageOwner[packageCount][msg.sender] = Package({\n\t\t    id: Id,\n\t\t\tdate: _date,\n\t\t\tpackageNum: packageCount,\n\t\t\tname: _name,\n\t\t\tlocation: _location,\n\t\t\tcontents: _contents,\n\t\t\tStatus: status.packaged,\n\t\t\tactive: true\n\t\t\t});\n\t\t_mint(msg.sender, Id);\n\t\tpackageCount = packageCount + 1;\n\t\tpackages.push(b);\n\t\temit packageCreated(_id, _date, _name, _location, _contents, packages.length);\n\t}\n\n    function signPackage (uint _id, uint _tokenId, address _signer) public onlyCompany() returns (uint) {\n\t    uint256 newId = uint(keccak256(abi.encodePacked(_id, _tokenId, _signer)));\n\t    packageOwner[_id][msg.sender].id = newId;\n\t    emit packageSigned(_id, newId, _tokenId, _signer);\n\t    return packageOwner[newId][msg.sender].id % idLength;\n\t}\n\t\n    function getPackages() public constant returns (uint) {\n        return packages.length;\n    }\n    \n    function getPackage(uint _packageNum, address _companyAddress) public constant returns(uint id, uint date, string name, string location, string contents) {\n        return (packageOwner[_packageNum][_companyAddress].id,\n                packageOwner[_packageNum][_companyAddress].date,\n        \t    packageOwner[_packageNum][_companyAddress].name, \n                packageOwner[_packageNum][_companyAddress].location, \n                packageOwner[_packageNum][_companyAddress].contents);\n    }\n\t\n\tfunction createId(uint256 _id) internal view returns (uint256) {\n        uint256 id = uint(keccak256(abi.encodePacked(_id)));\n        return id % idLength;\n    }\n    \n}",
  "sourcePath": "/Users/connor/FinalProject/contracts/PackageFactory.sol",
  "compiler": {
    "name": "solc",
    "version": "0.4.24+commit.e67f0147.Emscripten.clang"
  },
  "schemaVersion": "2.0.1",
  "updatedAt": "2018-08-25T15:49:47.450Z"
}